:020000040800F2
:1000000000280020450D0008E90C0008EF0C00084E
:10001000F50C0008FB0C0008010D000800000000B2
:10002000000000000000000000000000070D0008B4
:10003000130D0008000000001F0D00082B0D000824
:100040008D0D00088D0D00088D0D00088D0D000828
:100050008D0D00088D0D00088D0D00088D0D000818
:100060008D0D00088D0D00088D0D00088D0D000808
:100070008D0D00088D0D00088D0D00088D0D0008F8
:100080008D0D00088D0D00088D0D00088D0D0008E8
:100090008D0D00088D0D00088D0D00088D0D0008D8
:1000A0008D0D00088D0D00088D0D00088D0D0008C8
:1000B0008D0D00088D0D0008000000008D0D00085A
:1000C0008D0D000800000000000000008D0D0008EC
:1000D000000000008D0D00088D0D000800000000DC
:1000E0008D0D00088D0D00088D0D0008000000002A
:1000F0000000000000000000000000000000000000
:0C01000000000000000000005FF808F1A3
:10010C0010B5054C237833B9044B13B10448AFF345
:10011C0000800123237010BD0C00002000000000A3
:10012C00981B000808B5034B1BB103490348AFF3F8
:10013C00008008BD0000000010000020981B000883
:10014C0080B582B000AF7860C7F800C07B68002B28
:10015C002AD100224FF48071CB4801F0F7F800222D
:10016C004FF40071C84801F0F1F800224FF480619F
:10017C00C54801F0EBF800224FF40061C24801F0D1
:10018C00E5F800224FF48051BF4801F0DFF800225F
:10019C004FF40051BC4801F0D9F801224FF48041D2
:1001AC00B94801F0D3F89BE17B68012B2AD10122DD
:1001BC004FF48071B44801F0C9F800224FF400717B
:1001CC00B14801F0C3F800224FF48061AE4801F051
:1001DC00BDF801224FF40061AB4801F0B7F80122E1
:1001EC004FF48051A84801F0B1F801224FF40051AE
:1001FC00A54801F0ABF801224FF48041A24801F070
:10020C00A5F86DE17B68022B2AD100224FF4807196
:10021C009D4801F09BF800224FF400719A4801F0C0
:10022C0095F801224FF48061974801F08FF8002275
:10023C004FF40061944801F089F800224FF480518A
:10024C00914801F083F801224FF400518E4801F0DF
:10025C007DF800224FF480418B4801F077F83FE1A4
:10026C007B68032B2AD100224FF48071864801F061
:10027C006DF800224FF40071834801F067F80022FA
:10028C004FF48061804801F061F800224FF4006166
:10029C007D4801F05BF801224FF480517A4801F05F
:1002AC0055F801224FF40051774801F04FF8002225
:1002BC004FF48041744801F049F811E17B68042B3C
:1002CC002AD101224FF480716F4801F03FF80022CF
:1002DC004FF400716C4801F039F800224FF4806142
:1002EC00694801F033F801224FF40061664801F0CF
:1002FC002DF801224FF48051634801F027F80022B9
:10030C004FF40051604801F021F800224FF4804175
:10031C005D4801F01BF8E3E07B68052B2AD1002235
:10032C004FF48071584801F011F801224FF400711C
:10033C00554801F00BF800224FF48061524801F04F
:10034C0005F800224FF400614F4800F0FFFF012236
:10035C004FF480514C4800F0F9FF00224FF400514B
:10036C00494800F0F3FF00224FF48041464800F06A
:10037C00EDFFB5E07B68062B2AD100224FF480718B
:10038C00414800F0E3FF01224FF400713E4800F0B9
:10039C00DDFF00224FF480613B4800F0D7FF0022C4
:1003AC004FF40061384800F0D1FF00224FF4805127
:1003BC00354800F0CBFF00224FF40051324800F0DA
:1003CC00C5FF00224FF480412F4800F0BFFF87E0AB
:1003DC007B68072B2AD100224FF480712A4800F049
:1003EC00B5FF00224FF40071274800F0AFFF002248
:1003FC004FF48061244800F0A9FF01224FF4006102
:10040C00214800F0A3FF01224FF480511E4800F058
:10041C009DFF01224FF400511B4800F097FF012271
:10042C004FF48041184800F091FF59E07B68082B8D
:10043C002CD100224FF48071134800F087FF00226A
:10044C004FF40071104800F081FF00224FF48061DE
:10045C000D4800F07BFF00224FF400610A4800F0C9
:10046C0075FF00224FF48051074800F06FFF002207
:10047C004FF40051044800F069FF00224FF4804112
:10048C00014800F063FF2BE00008014000224FF40C
:10049C008071154800F05AFF00224FF40071124889
:1004AC0000F054FF00224FF480610F4800F04EFF23
:1004BC0000224FF400610C4800F048FF01224FF479
:1004CC008051094800F042FF00224FF400510648C9
:1004DC0000F03CFF00224FF48041034800F036FF4F
:1004EC0000BF0837BD4680BD0008014080B586B00E
:1004FC0000AF07F120037B6000F044FC00F024FB0C
:10050C0000F05EFB03237B6100233B610523FB6052
:10051C000023BB603B69032B00F24E8101A252F811
:10052C0023F000BF41050008E3050008850600081C
:10053C002507000801220121BB4800F007FF00221B
:10054C000221B94800F002FF00220421B64800F055
:10055C00FDFE00220821B44800F0F8FE0022102114
:10056C00B14800F0F3FE01222021AF4800F0EEFE6E
:10057C0001224021AC4800F0E9FE00228021AA486B
:10058C0000F0E4FE00224FF48071A74800F0DEFE7C
:10059C0000224FF40071A44800F0D8FE00224FF462
:1005AC008061A14800F0D2FE01224FF400619E4808
:1005BC0000F0CCFE3B1D9C46786900F037F97B6956
:1005CC00013B7B617B69002B40F0F88002237B614F
:1005DC0001233B61F2E001220121934800F0B6FEB9
:1005EC0000220221904800F0B1FE002204218E4826
:1005FC0000F0ACFE002208218B4800F0A7FE01227F
:10060C001021894800F0A2FE00222021864800F02B
:10061C009DFE01224021844800F098FE002280219A
:10062C00814800F093FE00224FF480717E4800F068
:10063C008DFE00224FF400717B4800F087FE0122F2
:10064C004FF48061784800F081FE00224FF4006185
:10065C00754800F07BFE3B1D9C46786900F0E6F87F
:10066C007B69013B7B617B69002B40F0A9800323F4
:10067C007B6102233B61A3E0002201216A4800F068
:10068C0065FE00220221684800F060FE0122042170
:10069C00654800F05BFE01220821634800F056FE1D
:1006AC0000221021604800F051FE002220215E48FB
:1006BC0000F04CFE002240215B4800F047FE002277
:1006CC008021594800F042FE01224FF480715648B7
:1006DC0000F03CFE01224FF40071534800F036FE4E
:1006EC0000224FF48061504800F030FE00224FF49D
:1006FC0000614D4800F02AFE3B1D9C467869FFF7CF
:10070C001FFD7B69013B7B617B69002B5AD1022366
:10071C007B6103233B6155E000220121424800F03C
:10072C0015FE01220221404800F010FE0022042197
:10073C003D4800F00BFE012208213B4800F006FE6C
:10074C0000221021384800F001FE002220213648FA
:10075C0000F0FCFD00224021334800F0F7FD01229F
:10076C008021314800F0F2FD00224FF480712E48B8
:10077C0000F0ECFD01224FF400712B4800F0E6FD77
:10078C0000224FF48061284800F0E0FD00224FF475
:10079C000061254800F0DAFD3B1D9C467869FFF7A7
:1007AC00CFFC7B69013B7B617B69002B0CD1032364
:1007BC007B6100233B6107E000BF06E000BF04E063
:1007CC0000BF02E000BF00E000BFBB68002B03D0FD
:1007DC00BB68012B10D022E03B1D9C46F868FFF74C
:1007EC00AFFCFB68013BFB60FB68002B14D10523BD
:1007FC00FB600123BB600FE03B1D9C46F86800F0DA
:10080C0015F8FB68013BFB60FB68002B06D1052348
:10081C00FB600023BB6001E000BF00E000BF4FF4B1
:10082C007A7000F011FB75E6000C014080B582B0C7
:10083C0000AF7860C7F800C07B68002B23D1002282
:10084C000221C04800F082FD00220421BD4800F0C6
:10085C007DFD00220821BB4800F078FD002210210C
:10086C00B84800F073FD00222021B64800F06EFD60
:10087C0000224021B34800F069FD01228021B148DB
:10088C0000F064FD5AE17B68012B23D10122022187
:10089C00AC4800F05BFD00220421AA4800F056FD94
:1008AC0000220821A74800F051FD01221021A54883
:1008BC0000F04CFD01222021A24800F047FD01224E
:1008CC004021A04800F042FD012280219D4800F00B
:1008DC003DFD33E17B68022B23D100220221994894
:1008EC0000F034FD00220421964800F02FFD012277
:1008FC000821944800F02AFD00221021914800F0B4
:10090C0025FD002220218F4800F020FD01224021EE
:10091C008C4800F01BFD002280218A4800F016FD57
:10092C000CE17B68032B23D100220221854800F0C7
:10093C000DFD00220421834800F008FD002208214F
:10094C00804800F003FD002210217E4800F0FEFCE0
:10095C00012220217B4800F0F9FC0122402179483A
:10096C0000F0F4FC00228021764800F0EFFCE5E07A
:10097C007B68042B23D101220221724800F0E6FC93
:10098C00002204216F4800F0E1FC002208216D4890
:10099C0000F0DCFC012210216A4800F0D7FC012297
:1009AC002021684800F0D2FC00224021654800F06C
:1009BC00CDFC00228021634800F0C8FCBEE07B68BF
:1009CC00052B23D1002202215E4800F0BFFC01223E
:1009DC0004215C4800F0BAFC00220821594800F0C0
:1009EC00B5FC00221021574800F0B0FC0122202158
:1009FC00544800F0ABFC00224021524800F0A6FC09
:100A0C00002280214F4800F0A1FC97E07B68062B68
:100A1C0023D1002202214B4800F098FC0122042132
:100A2C00484800F093FC00220821464800F08EFC58
:100A3C0000221021434800F089FC0022202141486B
:100A4C0000F084FC002240213E4800F07FFC002294
:100A5C0080213C4800F07AFC70E07B68072B23D1A6
:100A6C0000220221374800F071FC00220421354895
:100A7C0000F06CFC00220821324800F067FC0122D7
:100A8C001021304800F062FC012220212D4800F09A
:100A9C005DFC012240212B4800F058FC01228021F2
:100AAC00284800F053FC49E07B68082B23D1002236
:100ABC000221244800F04AFC00220421214800F0C5
:100ACC0045FC002208211F4800F040FC00221021A8
:100ADC001C4800F03BFC002220211A4800F036FC98
:100AEC0000224021174800F031FC002280211548DB
:100AFC0000F02CFC22E000220221124800F026FC1F
:100B0C00002204210F4800F021FC002208210D488E
:100B1C0000F01CFC002210210A4800F017FC0122F6
:100B2C002021084800F012FC00224021054800F06A
:100B3C000DFC00228021034800F008FC00BF0837A0
:100B4C00BD4680BD0008014080B590B000AF07F1F4
:100B5C00180328220021184601F010F83B1D002232
:100B6C001A605A609A60DA601A610223BB61012331
:100B7C00BB621023FB6200237B6307F1180318464A
:100B8C0000F0FCFB0346002B01D000F06FF80F23A4
:100B9C007B600023BB600023FB6000233B610023D0
:100BAC007B613B1D0021184600F068FE0346002BBC
:100BBC0001D000F05BF800BF4037BD4680BD00009F
:100BCC0080B586B000AF07F1080300221A605A60A6
:100BDC009A60DA60224B9B69214A43F004039361CB
:100BEC001F4B9B6903F004037B607B681C4B9B6968
:100BFC001B4A43F008039361194B9B6903F00803EC
:100C0C003B603B68002247F6FE71164800F09EFBE5
:100C1C00002240F6FF71144800F098FB47F6FE7373
:100C2C00BB600123FB6000233B6102237B6107F166
:100C3C00080319460B4800F00FFA40F6FF73BB602F
:100C4C000123FB6000233B6102237B6107F1080356
:100C5C001946054800F000FA00BF1837BD4680BDA4
:100C6C000010024000080140000C014080B400AFAD
:100C7C0072B600BFFEE7000080B485B000AF154B24
:100C8C009B69144A43F001039361124B9B6903F077
:100C9C000103BB60BB680F4BDB690E4A43F080530A
:100CAC00D3610C4BDB6903F080537B607B680A4B90
:100CBC005B68FB60FB6823F0E063FB60FB6843F060
:100CCC008063FB60044AFB68536000BF1437BD4669
:100CDC0080BC7047001002400000014080B400AF9F
:100CEC00FEE780B400AFFEE780B400AFFEE780B44F
:100CFC0000AFFEE780B400AFFEE780B400AF00BFEA
:100D0C00BD4680BC704780B400AF00BFBD4680BC00
:100D1C00704780B400AF00BFBD4680BC704780B543
:100D2C0000AF00F075F800BF80BD80B400AF00BF0D
:100D3C00BD4680BC70470000FFF7F7FF0B480C491D
:100D4C000C4A002302E0D458C4500433C4188C421B
:100D5C00F9D3094A094C002301E013600432A24282
:100D6C00FBD300F0E7FEFFF7C1FB7047000000204B
:100D7C000C000020DC1B00080C0000202C000020C4
:100D8C00FEE7000080B500AF084B1B68074A43F034
:100D9C0010031360032000F02BF90F2000F008F86B
:100DAC00FFF76AFF0023184680BD00BF00200240F9
:100DBC0080B582B000AF7860124B1A68124B1B786A
:100DCC0019464FF47A73B3FBF1F3B2FBF3F3184605
:100DDC0000F035F90346002B01D001230EE07B68AF
:100DEC000F2B0AD8002279684FF0FF3000F00BF976
:100DFC00064A7B681360002300E00123184608377D
:100E0C00BD4680BD0000002008000020040000202A
:100E1C0080B400AF054B1B781A46054B1B68134476
:100E2C00034A136000BFBD4680BC70470800002019
:100E3C002800002080B400AF024B1B681846BD464A
:100E4C0080BC70472800002080B584B000AF78606B
:100E5C00FFF7F0FFB8607B68FB60FB68B3F1FF3F06
:100E6C0005D00A4B1B781A46FB681344FB6000BF85
:100E7C00FFF7E0FF0246BB68D31AFA689A42F7D82C
:100E8C0000BF00BF1037BD4680BD00BF080000206A
:100E9C0080B485B000AF78607B6803F00703FB601B
:100EAC000C4BDB68BB60BA684FF6FF031340BB60AA
:100EBC00FB681A02BB68134343F0BF6343F400336F
:100ECC00BB60044ABB68D36000BF1437BD4680BC0E
:100EDC00704700BF00ED00E080B400AF044BDB684E
:100EEC001B0A03F007031846BD4680BC704700BFC1
:100EFC0000ED00E080B483B000AF03463960FB71B5
:100F0C0097F90730002B0ADB3B68DAB20C4997F9EA
:100F1C0007301201D2B20B4483F800230AE03B687D
:100F2C00DAB20849FB7903F00F03043B1201D2B289
:100F3C000B441A7600BF0C37BD4680BC704700BF0F
:100F4C0000E100E000ED00E080B489B000AFF86093
:100F5C00B9607A60FB6803F00703FB61FB69C3F1BE
:100F6C000703042B28BF0423BB61FB690433062B46
:100F7C0002D9FB69033B00E000237B614FF0FF3299
:100F8C00BB6902FA03F3DA43BB681A407B699A40E7
:100F9C004FF0FF317B6901FA03F3D9437B680B40B7
:100FAC00134318462437BD4680BC704780B582B0C9
:100FBC0000AF78607B68013BB3F1807F01D30123E4
:100FCC000FE00A4A7B68013B53600F214FF0FF3062
:100FDC00FFF790FF054B00229A60044B07221A6022
:100FEC00002318460837BD4680BD00BF10E000E066
:100FFC0080B582B000AF78607868FFF749FF00BF1A
:10100C000837BD4680BD80B586B000AF0346B960D9
:10101C007A60FB7300237B61FFF75EFF78617A686F
:10102C00B9687869FFF790FF024697F90F301146BF
:10103C001846FFF75FFF00BF1837BD4680BD80B56F
:10104C0082B000AF78607868FFF7B0FF03461846AF
:10105C000837BD4680BD000080B48BB000AF78600F
:10106C00396000237B6200233B6248E101227B6AEA
:10107C0002FA03F3FB613B681B68FA691340BB611E
:10108C00BA69FB699A4240F037813B685B68A34AB6
:10109C0093425ED0A14A934275D8A14A934258D04C
:1010AC009F4A93426FD89F4A934252D09D4A934293
:1010BC0069D89D4A93424CD09B4A934263D89B4A31
:1010CC00934246D0994A93425DD8122B2AD8122BC0
:1010DC0059D801A252F823F05F1100083911000809
:1010EC004B1100088D110008931100089311000892
:1010FC009311000893110008931100089311000834
:10110C009311000893110008931100089311000823
:10111C009311000893110008931100084111000865
:10112C0055110008824A934213D02CE03B68DB68CF
:10113C003B6229E03B68DB6804333B6224E03B689C
:10114C00DB6808333B621FE03B68DB680C333B62B7
:10115C001AE03B689B68002B02D104233B6213E02E
:10116C003B689B68012B05D108233B627B68FA69BD
:10117C001A6109E008233B627B68FA695A6103E053
:10118C0000233B6200E000BFBB69FF2B01D87B68EA
:10119C0001E07B6804337B61BB69FF2B02D87B6A5F
:1011AC009B0002E07B6A083B9B003B617B691A68F1
:1011BC000F213B6901FA03F3DB431A40396A3B699F
:1011CC0001FA03F31A437B691A603B685B6803F00E
:1011DC008053002B00F09080564B9B69554A43F08E
:1011EC0001039361534B9B6903F00103BB60BB6824
:1011FC00514A7B6A9B08023352F82330FB607B6AAE
:10120C0003F003039B000F2202FA03F3DB43FA689B
:10121C001340FB607B68494A93420DD07B68484A77
:10122C00934207D07B68474A934201D1022304E0E2
:10123C00032302E0012300E000237A6A02F0030298
:10124C0092009340FA681343FB603B497B6A9B080E
:10125C000233FA6841F823203B685B6803F480137F
:10126C00002B06D0384B9A683749BB6913438B6007
:10127C0006E0354B9A68BB69DB43334913408B60FE
:10128C003B685B6803F40013002B06D02E4BDA6826
:10129C002D49BB691343CB6006E02B4BDA68BB6965
:1012AC00DB4329491340CB603B685B6803F4003394
:1012BC00002B06D0244B5A682349BB6913434B605F
:1012CC0006E0214B5A68BB69DB431F4913404B6056
:1012DC003B685B6803F48033002B06D01A4B1A680A
:1012EC001949BB6913430B6006E0174B1A68BB69BD
:1012FC00DB43154913400B607B6A01337B623B680F
:10130C001A687B6A22FA03F3002B7FF4AFAE00BF9E
:10131C0000BF2C37BD4680BC704700BF00003210A8
:10132C0000003110000022100000211000001210EB
:10133C0000001110001002400000014000080140A4
:10134C00000C0140001001400004014080B483B047
:10135C0000AF78600B467B8013467B707B78002B4C
:10136C0003D07A887B681A6103E07B881A047B6857
:10137C001A6100BF0C37BD4680BC704780B586B083
:10138C0000AF78607B68002B01D101236CE27B6895
:10139C001B6803F00103002B00F08780924B5B6805
:1013AC0003F00C03042B0CD08F4B5B6803F00C0385
:1013BC00082B12D18C4B5B6803F48033B3F5803F60
:1013CC000BD1894B1B6803F40033002B6CD07B686A
:1013DC005B68002B68D1012346E27B685B68B3F540
:1013EC00803F06D1804B1B687F4A43F480331360E7
:1013FC002EE07B685B68002B0CD17B4B1B687A4A18
:10140C0023F480331360784B1B68774A23F48023D2
:10141C0013601DE07B685B68B3F5A02F0CD1724B99
:10142C001B68714A43F4802313606F4B1B686E4A30
:10143C0043F4803313600BE06B4B1B686A4A23F454
:10144C0080331360684B1B68674A23F48023136056
:10145C007B685B68002B13D0FFF7ECFC386108E06D
:10146C00FFF7E8FC02463B69D31A642B01D903232E
:10147C00FAE15D4B1B6803F40033002BF0D014E051
:10148C00FFF7D8FC386108E0FFF7D4FC02463B6953
:10149C00D31A642B01D90323E6E1534B1B6803F4E5
:1014AC000033002BF0D100E000BF7B681B6803F019
:1014BC000203002B63D04C4B5B6803F00C03002B36
:1014CC000BD0494B5B6803F00C03082B1CD1464B2B
:1014DC005B6803F48033002B16D1434B1B6803F07D
:1014EC000203002B05D07B681B69012B01D0012363
:1014FC00BAE13D4B1B6823F0F8027B685B69DB00AB
:10150C00394913430B603AE07B681B69002B20D0F0
:10151C00364B01221A60FFF78DFC386108E0FFF7AB
:10152C0089FC02463B69D31A022B01D903239BE1A8
:10153C002D4B1B6803F00203002BF0D02A4B1B68C9
:10154C0023F0F8027B685B69DB00274913430B60CF
:10155C0015E0264B00221A60FFF76CFC386108E09E
:10156C00FFF768FC02463B69D31A022B01D903230F
:10157C007AE11D4B1B6803F00203002BF0D17B6852
:10158C001B6803F00803002B3AD07B689B69002B87
:10159C0019D0174B01221A60FFF74CFC386108E098
:1015AC00FFF748FC02463B69D31A022B01D90323EF
:1015BC005AE10D4B5B6A03F00203002BF0D00120C3
:1015CC0000F09AFA1CE00A4B00221A60FFF732FC7A
:1015DC0038610FE0FFF72EFC02463B69D31A022B51
:1015EC0008D9032340E100BF001002400000424232
:1015FC00800442429E4B5B6A03F00203002BE9D14C
:10160C007B681B6803F00403002B00F0A68000230A
:10161C00FB75974BDB6903F08053002B0DD1944B7A
:10162C00DB69934A43F08053D361914BDB6903F040
:10163C008053BB60BB680123FB758E4B1B6803F4A6
:10164C008073002B18D18B4B1B688A4A43F4807330
:10165C001360FFF7EFFB386108E0FFF7EBFB024686
:10166C003B69D31A642B01D90323FDE0814B1B6822
:10167C0003F48073002BF0D07B68DB68012B06D160
:10168C007B4B1B6A7A4A43F0010313622DE07B68A3
:10169C00DB68002B0CD1764B1B6A754A23F00103D7
:1016AC001362734B1B6A724A23F0040313621CE02F
:1016BC007B68DB68052B0CD16D4B1B6A6C4A43F0C5
:1016CC00040313626A4B1B6A694A43F001031362F9
:1016DC000BE0674B1B6A664A23F001031362644BF1
:1016EC001B6A634A23F0040313627B68DB68002BDC
:1016FC0015D0FFF79FFB38610AE0FFF79BFB024612
:10170C003B69D31A41F28832934201D90323ABE0EF
:10171C00574B1B6A03F00203002BEED014E0FFF7CB
:10172C0089FB38610AE0FFF785FB02463B69D31A57
:10173C0041F28832934201D9032395E04C4B1B6A4A
:10174C0003F00203002BEED1FB7D012B05D1484B9E
:10175C00DB69474A23F08053D3617B68DB69002B3C
:10176C0000F08180424B5B6803F00C03082B61D0C6
:10177C007B68DB69022B46D13F4B00221A60FFF7D6
:10178C0059FB386108E0FFF755FB02463B69D31A59
:10179C00022B01D9032367E0354B1B6803F0007360
:1017AC00002BF0D17B681B6AB3F5803F08D1304B1E
:1017BC005B6823F400327B689B682D4913434B60B4
:1017CC002B4B5B6823F474127B68196A7B685B6A29
:1017DC000B43274913434B60274B01221A60FFF739
:1017EC0029FB386108E0FFF725FB02463B69D31A59
:1017FC00022B01D9032337E01D4B1B6803F0007348
:10180C00002BF0D02FE01C4B00221A60FFF712FBCC
:10181C00386108E0FFF70EFB02463B69D31A022B36
:10182C0001D9032320E0124B1B6803F00073002B3B
:10183C00F0D118E07B68DB69012B01D1012313E0A7
:10184C000B4B5B68FB60FB6803F480327B681B6AA4
:10185C009A4206D1FB6803F470127B685B6A9A4269
:10186C0001D0012300E0002318461837BD4680BD87
:10187C0000100240007000406000424280B584B00D
:10188C0000AF786039607B68002B01D10123D0E078
:10189C006A4B1B6803F007033A689A4210D9674BEE
:1018AC001B6823F0070265493B6813430B60634BCD
:1018BC001B6803F007033A689A4201D00123B8E091
:1018CC007B681B6803F00203002B20D07B681B682D
:1018DC0003F00403002B05D0594B5B68584A43F4C2
:1018EC00E06353607B681B6803F00803002B05D092
:1018FC00534B5B68524A43F460535360504B5B68E4
:10190C0023F0F0027B689B684D4913434B607B6866
:10191C001B6803F00103002B40D07B685B68012B34
:10192C0007D1474B1B6803F40033002B15D101235F
:10193C007FE07B685B68022B07D1414B1B6803F08F
:10194C000073002B09D1012373E03D4B1B6803F09E
:10195C000203002B01D101236BE0394B5B6823F0B0
:10196C0003027B685B68364913434B60FFF762FAEE
:10197C00F8600AE0FFF75EFA0246FB68D31A41F200
:10198C008832934201D9032353E02D4B5B6803F05B
:10199C000C027B685B689B009A42EBD1274B1B685F
:1019AC0003F007033A689A4210D2244B1B6823F0C9
:1019BC00070222493B6813430B60204B1B6803F062
:1019CC0007033A689A4201D0012332E07B681B6816
:1019DC0003F00403002B08D0194B5B6823F4E0627E
:1019EC007B68DB68164913434B607B681B6803F00C
:1019FC000803002B09D0124B5B6823F460527B6800
:101A0C001B69DB000E4913434B6000F021F80246C2
:101A1C000B4B5B681B0903F00F030A49CB5C22FAE2
:101A2C0003F3094A1360094B1B681846FFF7C0F90A
:101A3C00002318461037BD4680BD00BF0020024071
:101A4C0000100240B01B0008000000200400002021
:101A5C0080B487B000AF0023FB600023BB60002381
:101A6C007B6100237B6000233B611E4B5B68FB604A
:101A7C00FB6803F00C03042B02D0082B03D027E0E7
:101A8C00194B3B6127E0FB689B0C03F00F03174AD3
:101A9C00D35C7B60FB6803F48033002B10D0114BBC
:101AAC005B685B0C03F00103114AD35CBB607B6881
:101ABC000D4A02FB03F2BB68B2FBF3F37B6104E05B
:101ACC007B680C4A02FB03F37B617B693B6102E0A0
:101ADC00054B3B6100BF3B6918461C37BD4680BCBB
:101AEC00704700BF0010024000127A00C01B0008B3
:101AFC00D01B000800093D0080B485B000AF7860B1
:101B0C000A4B1B680A4AA2FB03235B0A7A6802FB96
:101B1C0003F3FB6000BFFB685A1EFA60002BF9D17F
:101B2C0000BF00BF1437BD4680BC704700000020CA
:101B3C00D34D621070B500260C4D0D4C641BA410D7
:101B4C00A64209D100F022F800260A4D0A4C641B6B
:101B5C00A410A64205D170BD55F8043B9847013638
:101B6C00EEE755F8043B98470136F2E7D41B000822
:101B7C00D41B0008D41B0008D81B000803460244E1
:101B8C00934200D1704703F8011BF9E7F8B500BF89
:101B9C00F8BC08BC9E467047F8B500BFF8BC08BC42
:041BAC009E4670479A
:101BB00000000000000000000102030406070809FD
:101BC00002030405060708090A0B0C0D0E0F10107E
:041BD000010200000E
:041BD40031010008D3
:041BD8000D010008F3
:0C1BDC0000127A00100000000100000060
:0400000508000D459D
:00000001FF
